:020000040800F2
:10000000600600205D020008650200086702000823
:10001000690200086B0200086D0200080000000081
:100020000000000000000000000000006F02000857
:100030007102000800000000730200087502000849
:1000400077020008770200087702000877020008AC
:10005000770200087702000877020008770200089C
:10006000770200087702000877020008770200088C
:10007000770200087702000877020008770200087C
:1000800077020008000000007702000877020008ED
:10009000770200087702000877020008770200085C
:1000A000770200087702000877020008770200084C
:1000B000770200087702000877020008770200083C
:1000C000770200087702000877020008770200082C
:1000D000770200087702000877020008770200081C
:1000E000770200087702000877020008770200080C
:1000F000770200087702000877020008000000007D
:1001000000000000770200080000000077020008ED
:10011000770200080000000077020008770200085C
:1001200077020008770200087702000877020008CB
:1001300077020008000000000000000077020008BD
:1001400077020008770200080000000000000000AD
:10015000000000000000000000000000000000009F
:10016000000000000000000000000000770200080E
:1001700077020008000000000000000000000000FE
:1001800000000000770200080000000000000000EE
:10019000000000000000000000000000000000005F
:1001A000000000000000000077020008770200084D
:1001B00077020008770200087702000800000000BC
:1001C00000000000770200080000000000000000AE
:1001D000770200087702000800F002F800F02EF81D
:1001E0000AA090E8000C82448344AAF10107DA4592
:1001F00001D100F023F8AFF2090EBAE80F0013F0B6
:10020000010F18BFFB1A43F0010318471C0100003F
:100210002C0100000023002400250026103A28BFEE
:1002200078C1FBD8520728BF30C148BF0B60704768
:100230001FB500F073F81FBD10B510BD00F031F808
:100240001146FFF7F5FF00F067F800F04FF803B430
:10025000FFF7F2FF03BC00F057F8000009488047A1
:1002600009480047FEE7FEE7FEE7FEE7FEE7FEE798
:10027000FEE7FEE7FEE7FEE704480549054A064BB0
:100280007047000017030008D90100086000002033
:100290006006002060020020600200207047704766
:1002A0007047754600F02CF8AE4605006946534687
:1002B00020F00700854618B020B5FFF7DDFFBDE848
:1002C00020404FF000064FF000074FF000084FF0BD
:1002D000000B21F00701AC46ACE8C009ACE8C0094E
:1002E000ACE8C009ACE8C0098D46704710B50446BB
:1002F000AFF300802046BDE81040FFF7A8BF000024
:10030000004870470000002001491820ABBEFEE7FE
:100310002600020070477047002070474FF0407081
:10032000E1EE100A704700003803000800000020CA
:08033000600600001402000841
:04000005080001D915
:00000001FF
