:020000040800F2
:10000000780600207902000809100008890F00080E
:1000100005100008350300082D100008000000003E
:1000200000000000000000000000000011100008A7
:1000300039030008000000000D100008151000082A
:10004000930200089302000893020008930200083C
:10005000930200089302000893020008930200082C
:10006000930200089302000893020008930200081C
:10007000930200089302000893020008930200080C
:100080009302000800000000930200089302000899
:1000900093020008930200089302000893020008EC
:1000A00093020008930200089302000893020008DC
:1000B00093020008930200089302000893020008CC
:1000C00093020008930200089302000893020008BC
:1000D00093020008930200089302000893020008AC
:1000E000930200089302000893020008930200089C
:1000F0009302000893020008930200080000000029
:1001000000000000930200080000000093020008B5
:100110009302000800000000930200089302000808
:10012000930200089302000893020008930200085B
:100130009302000800000000000000009302000885
:100140009302000893020008000000000000000075
:10015000000000000000000000000000000000009F
:1001600000000000000000000000000093020008F2
:1001700093020008000000000000000000000000E2
:1001800000000000930200080000000000000000D2
:10019000000000000000000000000000000000005F
:1001A0000000000000000000930200089302000815
:1001B0009302000893020008930200080000000068
:1001C0000000000093020008000000000000000092
:1001D000930200089302000800F002F800F03CF8D7
:1001E0000AA090E8000C82448344AAF10107DA4592
:1001F00001D100F031F8AFF2090EBAE80F0013F0A8
:10020000010F18BFFB1A43F001031847F00E00005E
:10021000100F0000103A24BF78C878C1FAD85207EE
:1002200024BF30C830C144BF04680C607047000070
:100230000023002400250026103A28BF78C1FBD8EF
:10024000520728BF30C148BF0B6070471FB500F090
:1002500040FF1FBD10B510BD00F031F81146FFF78B
:10026000F5FF00F0E5FE00F04FF803B4FFF7F2FFF2
:1002700003BC00F057F800000948804709480047D0
:10028000FEE7FEE7FEE7FEE7FEE7FEE7FEE7FEE746
:10029000FEE7FEE704480549054A064B70470000A3
:1002A00019100008D9010008780000207806002005
:1002B000780200207802002070477047704775462A
:1002C00000F02CF8AE4605006946534620F00700C2
:1002D000854618B020B5FFF7DDFFBDE820404FF0A0
:1002E00000064FF000074FF000084FF0000BAC463F
:1002F000ACE8C009ACE8C009ACE8C009ACE8C0098A
:1003000021F007018D46704710B50446AFF3008019
:100310002046BDE81040FFF7A8BF00000048704726
:100320001000002001491820ABBEFEE726000200A5
:1003300070470000FEE7000070470000B0B50446BB
:1003400000F0ECF8054640F20000C2F20000406800
:10035000611C18BF044400BF00F0E0F8401BA0423D
:10036000FAD3B0BD2DE9F04F82B00D68002D00F03A
:10037000CB8041F2004400F13847C4F60004062265
:100380004FEAB726A04208BF0522052E38BF4FEA24
:10039000B722002401274FF0000E0026009209E04A
:1003A0000D68013635FA06F20EF1040E04F102046E
:1003B00000F0AA8007FA06FB15EA0B08F0D0D1F886
:1003C00004A003220AF0030CACF10105A240012DA8
:1003D0006FEA020910D88268CD6802EA0902A540D6
:1003E0002A4382604268CAF3001522EA0B02B54034
:1003F0002A43426006E000BFBCF1030F02D14FF078
:10040000030C21E0C2688D6802EA0902A5402A4374
:10041000BCF1020FC26017D16FF0030202EA56026C
:1004200002440EF01C030F25D2F820C005FA03FA8F
:100430000D692CEA0A0C05FA03F343EA0C03136274
:10044000D1F804A00AF0030C02680CFA04F302EAE3
:1004500009021A431AF4403F0260A1D041F260033E
:10046000C4F202031A6840F2004942F001021A6025
:100470001A68C4F2010902F001020192019A26F001
:1004800003024FF6084A4A44CFF6FF7A52F80AC0F0
:100490000EF00C050F23009FAB402CEA030307FA74
:1004A00005F52B4342F80A30D9F808C04B684CEAEE
:1004B0000805DA0258BF2CEA080540F20C4CC9F8CE
:1004C0000850C4F2010CDCF800209F0242EA080543
:1004D00058BF22EA0805CCF80050D9F804209D0343
:1004E00042EA080758BF22EA0807C9F80470D9F899
:1004F0000020DB0342EA080758BF22EA0807C9F8D0
:10050000007001274CE700BF02B0BDE8F08F00008B
:100510001823002A08BF2823C150704740F27000FA
:10052000C2F200000068704740F2000040F2700123
:10053000C2F20000C2F2000140680A68104408607C
:100540007047000080B5032000F078F80F2000F01D
:1005500009F800281CBF012080BD00F029F8002008
:1005600080BD000070B540F20006C2F2000671685E
:10057000E1B1044640F20800C2F200004FF47A7282
:100580000068B2FBF1F1B0FBF1F000F0E7FC0F2CDA
:100590004FF0010508D838B94FF0FF30214600224E
:1005A000002500F01FF83460284670BD012070BDA2
:1005B00082B041F25800C4F20200816841F00101AA
:1005C0008160816801F0010101910199016841F0A8
:1005D00080510160006800F080500090009802B0E7
:1005E00000F0D0B810B54EF60C5CCEF2000CDCF882
:1005F0000030C3F3022E8EF00704042C28BF04241D
:10060000BEF103034FF0FF3E0EFA04F438BF00239F
:10061000A14399400EFA03F39A43114300F00F02ED
:1006200000F160430901043A03F564436244002881
:1006300048BF02F10C03197010BD00004EF60C51BA
:10064000CEF200010A684FF6FF031A4060F30A2257
:1006500042F0806040F0FD7008607047B0F5007FA8
:1006600042D0002840F0808047F21400C4F200001D
:1006700050F8141CC26E01F4C06122F48072B1F50E
:10068000806FC2662ED150F8141C012262F34A21F9
:1006900040F8141C40F20801C2F20001096832223D
:1006A00051434DF68362C4F21B32A1FB0212910C3E
:1006B0000268520511D54A1C0FD0026852050CD5AC
:1006C00059B10268520508D5012906D002685205C1
:1006D00003D50229A1F10401EAD10068400544BF15
:1006E000032070470020704747F21400C4F2000056
:1006F00050F8141CC26E01F4C06142F48072B1F56E
:10070000806FC266EED150F8141C012262F34A21B8
:1007100040F8141C40F20801C2F2000109683222BC
:1007200051434DF68362C4F21B32A1FB0212910CBD
:100730000268520511D54A1C0FD0026852050CD52B
:1007400059B10268520508D5012906D00268520540
:1007500003D50229A1F10401EAD10068400544BF94
:1007600003207047BEE700BF47F21400C4F2000048
:1007700050F8141C022262F34A2140F8141C002095
:100780007047000047F20800C4F20000016841F41D
:1007900080410160704700002DE9F04700286DD0CE
:1007A00042F2000AC4F2020A0446DAF800000D46DA
:1007B00000F00F0088420CD2DAF8000020F00F00A1
:1007C0002843CAF80000DAF8000000F00F00A84241
:1007D00054D1216841F20808C807C4F2020803D1C5
:1007E000880740F1D880BDE0606802283AD003282D
:1007F00040D158F8082C920140D5D8F80420D8F8F8
:10080000043042F20046C3F3031302F00302D8F8A7
:1008100004700133C0F2F406032A04BF47F6400611
:10082000C0F27D16B6FBF3F2D8F80430C7F3062702
:100830007A43C3F34163022707EB4303B2FBF3F2AE
:100840004BF20043C0F2C4439A4261D9D8F8002069
:1008500012F0F00F51D089075AD5A168002957D15D
:100860004BE000BF58F8081C89035CBF0120BDE8BD
:10087000F08707E058F8081C490503D40120BDE8BB
:10088000F08700BFD8F8001001F00C0104293FD018
:10089000D8F8001001F00C01082939D0D8F8001060
:1008A00001F00C010C2933D1D8F80410D8F8042039
:1008B00042F20047C2F3031201F00301D8F80430FA
:1008C0000132C0F2F407032904BF47F64007C0F223
:1008D0007D17B7FBF2F1D8F80420C3F30623594380
:1008E000C2F34162022303EB4202B1FBF2F14BF28D
:1008F0000042C0F2C44291420AD9D8F8001008223E
:1009000062F307114FF00109C8F8001002E000BFC0
:100910004FF00009D8F8001021F003010843C8F88F
:100920000000FFF7FBFD064641F28837D8F80000CB
:10093000616800F00C00B0EB810F07D0FFF7EEFD0F
:10094000801BB842F2D90320BDE8F08721688807F0
:1009500008D4B9F1000F1ED0D8F8000020F0F00044
:1009600017E000BF480705D5D8F8000040F4E06064
:10097000C8F80000080706D5D8F80000072262F37F
:100980000D20C8F80000D8F80000A26820F0F000A0
:100990001043C8F80000DAF8000000F00F00A84289
:1009A0001BD9DAF8000020F00F002843CAF8000035
:1009B000FFF7B4FD064641F2883700BFDAF80000C1
:1009C00000F00F00A84207D0FFF7A8FD801BB84237
:1009D000F4D90320BDE8F0872168480707D5D8F887
:1009E0000000E26820F4E0601043C8F80000080747
:1009F00008D5D8F80000216920F4605040EAC10011
:100A0000C8F80000D8F8000042F20041C0F2F4013A
:100A100000F00C00042808462DD0D8F8000000F0A3
:100A20000C00082847F64000C0F27D1023D0D8F80B
:100A3000002002F00C020C2A1CD1D8F80420D8F8AF
:100A4000043002F00302C3F30313D8F80470013337
:100A5000032A08BF0146B1FBF3F0D8F80410C7F32E
:100A60000627C1F341610222784302EB4101B0FB4A
:100A7000F1F000E00020D8F8001041F2EC02C1F3E0
:100A80000311C0F60002515C40F2080201F01F01A0
:100A900020FA01F140F20000C2F200000068C2F248
:100AA00000021160BDE8F047FFF75CBD2DE9F041A1
:100AB00082B0002800F006810446007841F200066A
:100AC000C007C4F2020655D12078800774D420787C
:100AD000000700F197802078400700F1B780207868
:100AE000800600F10781E069002840D0B16801F07C
:100AF0000C010C2940F05681012800F0E380F068D9
:100B0000216A00F003028A4240F0DC80626A6FF0E2
:100B10000F0300F0F00103EB0212914240F0D2808B
:100B2000A16A00F4FE42B2EB012F40F0CB80E16AF3
:100B300000F07842B2EBC16F40F0C480226B00231A
:100B4000CFF6E07303EA025200F4C001A2F50012EE
:100B5000914240F0B780616B4FF07E4202EA016142
:100B600000F0C06001F17E41884240F0AB8000207F
:100B7000F1E100BFB06800F00C01F06808295BD01B
:100B8000032281F00C0122EA00000844B0FA80F050
:100B9000400951D16068B0F5803F07D0B0F5A02F73
:100BA00040F0D680306840F480203060306840F4F7
:100BB00080303060D7E000BFB068F16800F00C0012
:100BC000042869D001F0030180F00C0081F00201DB
:100BD0000844B0FA80F040095ED1E168306800292D
:100BE00000F0CE8040F480703060FFF797FC05463F
:100BF0003068400500F1EC80FFF790FC401B0228B4
:100C0000F6D920E16169D6F89400002900F08C80C3
:100C100040F00100C6F89400FFF780FC054600BFD5
:100C2000D6F8940080073FF556AFFFF777FC401BDE
:100C30000228F5D907E100BF306880037FF544AF93
:100C4000606800287FF440AF3CE000BFB06D10F05A
:100C5000805808D1B06D40F08050B065B06D00F0A4
:100C600080500190019847F20007C4F200073868ED
:100C7000C0052BD4386840F480703860FFF74EFC14
:100C8000054600BF3868C00520D4FFF747FC401B6D
:100C90000228F7D9D7E000BF3068400501D5E068E9
:100CA00080B17068216920F0FE4040EA0160706008
:100CB00040F20000C2F200000068FFF753FC002879
:100CC0003FF405AF012002B0BDE8F081A068012823
:100CD00008D0052840F09A80D6F8900040F0040033
:100CE000C6F89000D6F8900040F00100C6F89000D9
:100CF0009AE000BFA169D6F89800002970D040F0B2
:100D00000100C6F89800FFF709FC0546D6F89800E0
:100D100080073FF5E8AEFFF701FC401B02284FF0CB
:100D20000300F3D917E100BF20F00100C6F89400DA
:100D3000FFF7F4FB054600BFD6F8940080077FF567
:100D4000CAAEFFF7EBFB401B0228F5D97BE000BFE2
:100D50003168002821F480313160316821F480212C
:100D6000316000F08F80FFF7D9FB054630688003C3
:100D70003FF5AAAEFFF7D2FB401B6428F6D962E02C
:100D800020F480703060FFF7C9FB054630684005ED
:100D90007FF59DAEFFF7C2FB401B02284FF003001A
:100DA000F4D9D8E03168022821F0807131604FD148
:100DB000FFF7B4FB054600BF3068800140F18E802C
:100DC000FFF7ACFB401B02284FF00300F4D9C2E050
:100DD0007068216920F0FE4040EA0160706076E6AC
:100DE00020F00100C6F89800FFF798FB054600BF09
:100DF000D6F8980080077FF576AEFFF78FFB401B93
:100E000002284FF00300F3D9A5E000BFD6F89010F8
:100E1000002821F00101C6F89010D6F8901021F0BA
:100E20000401C6F890103DD0FFF778FB054641F26B
:100E3000883700BFD6F89000800745D4FFF76EFBD7
:100E4000401BB842F6D9032002B0BDE8F08100BFD4
:100E5000F0684FF6FF7120F00300F060F068CFF605
:100E6000EE610840F060FFF759FB044630688001EE
:100E70007FF57DAEFFF752FB001B02284FF0030009
:100E8000F4D968E0FFF74AFB054600BF30688003ED
:100E90007FF51AAEFFF742FB401B64284FF00300BA
:100EA000F4D958E0FFF73AFB054641F2883700BF16
:100EB000D6F89000800707D5FFF730FB401BB842FB
:100EC0004FF00300F4D946E0B8F1000F7FF407AE0D
:100ED000B06D20F08050B06501E600BFF06848F2C8
:100EE0000C01C0F29F1104F1200700EA010C8ECF23
:100EF0006FF00F00D4E90C5400EB02100022CFF683
:100F0000E07241EA0C0102EA05520843A2F5001220
:100F10004FF07E4540EA032005EA0465104305F1E1
:100F20007E4540EAC7602843F060306840F080703A
:100F30003060F06840F08070F060FFF7EFFA044630
:100F4000306880013FF513AEFFF7E8FA001B022876
:100F50004FF00300F4D902B0BDE8F081411E00203B
:100F6000B0EB116F1CBF012070474EF21002CEF2A1
:100F7000000251604EF62351CEF20001F0230B70B7
:100F80000721906011607047FEE7000070B586B0E1
:100F90000020059041F24C00C4F20200016840F2CA
:100FA000004441F0040101600168C4F6000401F04E
:100FB0000401009100990168012241F020010160C3
:100FC00001684FF4006501F020010091009901686B
:100FD000012641F00201016000684FF4006100F059
:100FE0000200009000982046FFF792FA0320049038
:100FF00001A92046CDE901560396FFF7B3F906B0E3
:1010000070BD0000FEE70000FEE700007047000032
:1010100070470000FFF788BA4EF68850CEF2000005
:10102000016841F47001016070470000FEE70000B4
:1010300094B0FFF787FA002400200C94CDE90A440D
:10104000CDE90844FFF70AFB012006904FF48030F9
:101050000521079002200F9144210D900325CDE931
:101060001010CDE9120006A80E95FFF71FFD28B15C
:10107000EFF3108072B600BFFEE700BF0F20CDE98E
:10108000010501A80421CDE903440594FFF784FB81
:1010900020B1EFF3108072B6FEE700BF40F20044CB
:1010A000C4F60004FFF772FF20464FF400610022EF
:1010B000FFF72EFA4FF4FA70FFF740F920464FF48D
:1010C00000610122FFF724FA4FF4FA70FFF736F9B6
:1010D000EAE7F1EE100A4FF6FF71C0F2C03120EAE4
:1010E000010040F04070E1EE100A7047000000007F
:1010F000000000000102030406070809201100088F
:101100000000002010000000140200083011000848
:1011100010000020680600003002000800000000F7
:1011200010000000010000000024F4000000000096
:04000005080001D915
:00000001FF
