:020000040800F2
:1000000008040020ED010008F1010008F3010008D8
:10001000F5010008F7010008F901000800000000E0
:10002000000000000000000000000000FB010008CC
:10003000FD01000800000000FF01000801020008A7
:10004000030200080302000803020008030200087C
:10005000030200080302000803020008030200086C
:10006000030200080302000803020008030200085C
:10007000030200080302000803020008030200084C
:100080000302000800000000030200080302000849
:10009000030200080302000803020008030200082C
:1000A000030200080302000803020008030200081C
:1000B000030200080302000803020008030200080C
:1000C00003020008030200080302000803020008FC
:1000D00003020008030200080302000803020008EC
:1000E00003020008030200080302000803020008DC
:1000F00003020008030200080302000800000000D9
:1001000000000000030200080000000003020008D5
:1001100003020008000000000302000803020008B8
:10012000030200080302000803020008030200089B
:1001300003020008000000000000000003020008A5
:100140000302000803020008000000000000000095
:10015000000000000000000000000000000000009F
:100160000000000000000000000000000302000882
:100170000302000800000000000000000000000072
:100180000000000003020008000000000000000062
:10019000000000000000000000000000000000005F
:1001A0000000000000000000030200080302000835
:1001B0000302000803020008030200080000000018
:1001C0000000000003020008000000000000000022
:1001D0000302000803020008DFF80CD000F014F856
:1001E000004800473D040008080400200548004777
:1001F000FEE7FEE7FEE7FEE7FEE7FEE7FEE7FEE7D7
:10020000FEE7FEE7D9010008064C074D06E0E0686E
:1002100040F0010394E8070098471034AC42F6D34D
:10022000FFF7DEFF90040008A004000841F200017F
:10023000C4F20201086840F4803008604FF40050B6
:100240000A68920303D401380204F9D100200004A3
:100250004DD0086820F0807008604FF4005000BF57
:100260000A68920103D501380204F9D10020000484
:100270004FF0010008BF7047886047F28000C4F269
:100280000000026822F48072026042F20000C4F2B0
:100290000200026822F00F020260026842F00402CB
:1002A000026044F24340C860086840F08070086013
:1002B0004FF470400A68920103D401380204F9D166
:1002C0000020000413D0C86840F08070C8608868BF
:1002D00040F00300886000BF886800F00C000C2824
:1002E000FAD1886820F0F000886000207047012073
:1002F000704700004EF21000CEF20000016841F09D
:100300000401016040F20000C2F20000012101700E
:1003100070470000B0B54FF47A7100FB01FE44F65F
:10032000DF614FEA1E10C0F2D351A0FB01014FEA7A
:10033000D11C45F690714EF21000C0F2010140F25E
:100340000003CEF200008E45C2F2000321D36246C4
:1003500000210024BCF1010F98BF01221D78002D5F
:100360001CBF47F2A055C0F2E905456081600568F1
:1003700045F00105056000BF056805F00115012D78
:10038000FAD00568013425F00105944205608160CA
:10039000E4D14AF27001CFF6FE711A780CFB01E14C
:1003A000002A18BFAA2251434160002181600168E0
:1003B00041F00101016000BF016801F00111012954
:1003C000FAD0016821F00101016000218160B0BD17
:1003D00041F24C00C4F20200016821F00201016008
:1003E000016841F00201016040F20040C4F60000E3
:1003F000016821F440010160016841F4800101605D
:10040000416821F400614160816821F4400181600C
:10041000816841F400018160C16821F44001C1603C
:10042000C16841F48001C160416921F4006141610A
:10043000416941F4006141617047000040F2144499
:10044000C4F60004FFF7F2FEFFF7C2FFFFF752FF0A
:10045000002500BF20684FF4FA702560FFF75AFFAF
:10046000206840F4006020604FF4FA70FFF752FFFC
:10047000F0E702E008C8121F08C1002AFAD170474D
:100480007047002001E001C1121F002AFBD1704714
:10049000A0040008000000200804000082040008F6
:04000005080001D915
:00000001FF
