:020000040800F2
:1000000008040020F1010008F5010008F7010008CC
:10001000F9010008FB010008FD01000800000000D4
:10002000000000000000000000000000FF010008C8
:100030000102000800000000030200080502000899
:10004000070200080702000807020008070200086C
:10005000070200080702000807020008070200085C
:10006000070200080702000807020008070200084C
:10007000070200080702000807020008070200083C
:10008000070200080000000007020008070200083D
:10009000070200080702000807020008070200081C
:1000A000070200080702000807020008070200080C
:1000B00007020008070200080702000807020008FC
:1000C00007020008070200080702000807020008EC
:1000D00007020008070200080702000807020008DC
:1000E00007020008070200080702000807020008CC
:1000F00007020008070200080702000800000000CD
:1001000000000000070200080000000007020008CD
:1001100007020008000000000702000807020008AC
:10012000070200080702000807020008070200088B
:10013000070200080000000000000000070200089D
:10014000070200080702000800000000000000008D
:10015000000000000000000000000000000000009F
:10016000000000000000000000000000070200087E
:10017000070200080000000000000000000000006E
:10018000000000000702000800000000000000005E
:10019000000000000000000000000000000000005F
:1001A000000000000000000007020008070200082D
:1001B000070200080702000807020008000000000C
:1001C000000000000702000800000000000000001E
:1001D0000702000807020008DFF810D000F016F848
:1001E000004800472D040008AFF3008008040020F9
:1001F00005480047FEE7FEE7FEE7FEE7FEE7FEE70D
:10020000FEE7FEE7FEE7FEE7D9010008064C074DD2
:1002100006E0E06840F0010394E8070098471034D6
:10022000AC42F6D3FFF7DCFF60040008800400084E
:100230004FF400510846344A136843F48033136086
:1002400013689B0303D4401E0004000CF8D1E8B3EC
:10025000106820F080701060084613689B0103D579
:10026000401E0004000CF8D188B3012090600846BD
:10027000401E0004000CFBD12448036823F4807363
:1002800003602348036823F00F030360036843F00F
:1002900004030360491E0904090CFBD144F24340E6
:1002A000D060106840F0807010604FF470431846C2
:1002B0001168890103D4401E0004000CF8D1F8B184
:1002C000D06840F08070D060906801E014E015E0E4
:1002D00040F0030090609068C0F381000328FAD1D9
:1002E00083B10020401E0004000CFBD1906820F078
:1002F000F000906000207047012070470120704797
:1003000001207047012070470010024080700040BB
:100310000020024002E008C8121F08C1002AFAD1DA
:1003200070477047002001E001C1121F002AFBD175
:10033000704700004FF0E020016941F004010161C5
:100340000149AA200860704700000020F0B54FF472
:100350007A710C4E4843B0FBF6F5A5EB4521C1EB95
:10036000C101A1EBC52100EB0117002403E03046D9
:1003700000F00AF8641CAC42F9D33846BDE8F040FE
:1003800000F002B8905F01000B49096848434FF044
:10039000E021486100238B61086940F00100086199
:1003A0000869C20701D0C003FAD5086920F001002E
:1003B00008618B6170470000000000201948C16C83
:1003C00021F00201C164C16C41F00201C164164810
:1003D000016821F440010160016841F4800101607D
:1003E000001D016821F400610160001D016821F415
:1003F00040010160016841F400010160001D0168D5
:1004000021F440010160016841F480010160064867
:100410001430016821F400610160016841F4006159
:10042000016070470010024000040048FFF700FF21
:10043000FFF7C4FFFFF77EFF084C00254FF4FA7664
:10044000206825603046FFF781FF216841F4006194
:1004500021603046FFF77AFFF2E7000014040048FD
:1004600080040008000000200400000014030008BD
:100470008404000804000020040400002403000891
:040480000000000078
:04000005080001D915
:00000001FF
