:020000040800F2
:100000007006002079020008AB0E0008390E0008C7
:10001000A90E00087F0300082D0F00080000000053
:10002000000000000000000000000000AF0E00080B
:100030008103000800000000AD0E0008B10E0008AA
:10004000930200089302000893020008930200083C
:10005000930200089302000893020008930200082C
:10006000930200089302000893020008930200081C
:10007000930200089302000893020008930200080C
:100080009302000800000000930200089302000899
:1000900093020008930200089302000893020008EC
:1000A00093020008930200089302000893020008DC
:1000B00093020008930200089302000893020008CC
:1000C00093020008930200089302000893020008BC
:1000D00093020008930200089302000893020008AC
:1000E000930200089302000893020008930200089C
:1000F0009302000893020008930200080000000029
:1001000000000000930200080000000093020008B5
:100110009302000800000000930200089302000808
:10012000930200089302000893020008930200085B
:100130009302000800000000000000009302000885
:100140009302000893020008000000000000000075
:10015000000000000000000000000000000000009F
:1001600000000000000000000000000093020008F2
:1001700093020008000000000000000000000000E2
:1001800000000000930200080000000000000000D2
:10019000000000000000000000000000000000005F
:1001A0000000000000000000930200089302000815
:1001B0009302000893020008930200080000000068
:1001C0000000000093020008000000000000000092
:1001D000930200089302000800F002F800F03CF8D7
:1001E0000AA090E8000C82448344AAF10107DA4592
:1001F00001D100F031F8AFF2090EBAE80F0013F0A8
:10020000010F18BFFB1A43F0010318477C0D0000D3
:100210009C0D0000103A24BF78C878C1FAD8520764
:1002200024BF30C830C144BF04680C607047000070
:100230000023002400250026103A28BF78C1FBD8EF
:10024000520728BF30C148BF0B6070471FB500F090
:100250008DFE1FBD10B510BD00F058F81146FFF718
:10026000F5FF00F075FE00F076F803B4FFF7F2FF3B
:1002700003BC00F07DF800000948804709480047AA
:10028000FEE7FEE7FEE7FEE7FEE7FEE7FEE7FEE746
:10029000FEE7FEE704480549054A064B70470000A3
:1002A0001D0F0008D9010008700000207006002012
:1002B00070020020700200204FF0000200B51346CB
:1002C00094469646203922BFA0E80C50A0E80C5076
:1002D000B1F12001BFF4F7AF090728BFA0E80C5027
:1002E00048BF0CC05DF804EB890028BF40F8042B20
:1002F00008BF704748BF20F8022B11F0804F18BF8D
:1003000000F8012B7047704770477047754600F042
:100310002BF8AE4605006946534620F00700854697
:1003200018B020B5FFF7B6FFBDE820404FF000063B
:100330004FF000074FF000084FF0000B21F00701CD
:10034000AC46ACE8C009ACE8C009ACE8C009ACE810
:10035000C0098D46704710B50446AFF300802046B3
:10036000BDE81040FFF781BF004870471000002033
:1003700001491820ABBEFEE7260002007047FEE7E9
:10038000704700002DE9F04FDFF82092002301268E
:100390000324A9F1040B85B00F2709F1040AABF17E
:1003A000040EFAE006FA03F52A407CD091F804C066
:1003B0000CF0030CBCF1010F02D0BCF1020F26D1EE
:1003C000D0F808C0CDF800C04FEA430C04FA0CF88E
:1003D000CDF810C0DDF800C02CEA080CCDF800C044
:1003E000D1F80C80DDF810C008FA0CF8DDF800C078
:1003F00048EA0C08C0F80880D0F804C02CEA050CC4
:100400000D79C5F300159D4045EA0C0545600D7951
:10041000ED43AD070ED0C5684FEA430804FA08FC67
:1004200025EA0C05D1F808C00CFA08FC4CEA050CCA
:10043000C0F80CC00D7905F00305022D16D1DD08BA
:1004400000EB850CCDF808C0DCF820805D074FEA92
:10045000D56C07FA0CF528EA05080D6905FA0CF5C4
:10046000DDF808C045EA0805CCF8205005684FEAD9
:10047000430CCDF808C004FA0CFC25EA0C0591F8F1
:1004800004C00CF00308DDF808C008FA0CF848EACC
:100490000508C0F800804D6815F4403F7CD0444DFD
:1004A000D5F860C000E077E04CF0010CC5F860C002
:1004B0002D6E23F0030C05F0010500953D4D6544BC
:1004C0000295AD684FEA837C4FEA1C7807FA08FC76
:1004D00025EA0C05B0F1904F06D0DFF8DCC060458E
:1004E00005D14FF0010C20E04FF0000C1DE0DFF8CB
:1004F000CCC0604502D14FF0020C16E0DFF8C0C05E
:10050000604502D14FF0030C0FE0DFF8B8C0604542
:1005100002D14FF0040C08E0DFF8ACC0604502D116
:100520004FF0050C01E04FF0060C0CFA08FC4CEA09
:10053000050C029DC5F808C0D9F80050CC46D1F88A
:10054000048095435FEAC82800D51543CCF80050D5
:10055000DAF80050D446D1F8048095435FEA882841
:1005600000D51543CCF80050DBF80050DC46D1F83C
:10057000048095435FEA883800D51543CCF80050D5
:10058000DEF80050F446D1F8048095435FEAC8389D
:1005900000D51543CCF800505B1C0A6832FA03F50D
:1005A0007FF400AF05B0BDE8F08F00000804014003
:1005B000001002400000014000040048000800480C
:1005C000000C004800100048001400480AB1816186
:1005D00070478162704700000148806870470000E2
:1005E0000000002002488168426811448160704721
:1005F0000000002010B50024032000F065F80F2053
:1006000000F008F808B1012401E000F025F82046C8
:1006100010BD000070B50E4E05460024706898B1FC
:100620004FF47A71B1FBF0F00A490968B1FBF0F0C0
:1006300000F0EEFB40B9102D06D200222946501ED4
:1006400000F022F8356000E00124204670BD000073
:10065000000000200C0000200A4882B0016E41F02A
:1006600001010166016E01F001010091816D41F00F
:1006700080518165806D00F08050009002B000F0E4
:1006800093B8000000100240F0B40E4B1B680C46FB
:10069000C3F30223C3F10705042D00D90425191D56
:1006A000072901D2002300E0DB1E012606FA05F12E
:1006B000491E214099409E40761E16403143F0BCB1
:1006C00000F035BC0CED00E0064900F007020868B8
:1006D0004FF6FF03184040EA0220034A1043086027
:1006E000704700000CED00E00000FA052B492C4B90
:1006F0000A6832214A432B4940B1B0F5007F0868AF
:1007000029D020F4C06040F480602CE00868C0F379
:100710004120022804D051F8800F20F4807022E09C
:10072000D1F8800020F48070C1F88000086820F4BF
:10073000C06040F400700860B2FBF3F0401C00E0C1
:10074000401E4A69520501D50028F9D14869400583
:100750000AD503207047C0F34120022806D051F883
:10076000800F40F48070086000207047D1F880004E
:1007700040F48070C1F88000086820F4C06040F444
:1007800000700860B2FBF3F0401C00E0401E4A69B4
:100790005205DBD50028F9D1D8E700000C00002075
:1007A00040420F00007000400248816841F48041DF
:1007B00081607047007000402DE9F0470E4605004B
:1007C0004FF0000725D0DFF8AC81D8F8000000F02A
:1007D0000F00B0420CD2D8F8001021F00F013143C5
:1007E000C8F80010D8F8000000F00F00B04210D197
:1007F0002968614CC80741F2883A5AD06868DFF826
:100800007C91032808D0022820682DD040050028BC
:100810002CDB0120BDE8F08720688001F9D5E06875
:1008200000F00302E068C0F30310401C032A19D053
:10083000534A00BFB2FBF0F0E268C2F30622504315
:10084000E268C2F34162521C5200B0FBF2F048452C
:1008500017D9A06810F0F00F0CD0880711D5A86840
:1008600040B10EE0474AE5E78003D0E700F092F898
:10087000484506D9A06820F0F00040F08000A06054
:100880008027A068696820F003000843A060FFF794
:10089000A3FE814606E000BFFFF79EFEA0EB090124
:1008A00051453AD8A068696800F00C00B0EB810FA0
:1008B000F2D12868810714D5400703D5A06840F419
:1008C000E060A0602878000705D5A06820F460509B
:1008D00040F4E060A060A068A96820F0F000084340
:1008E00004E0802F03D1A06820F0F000A060D8F8C9
:1008F0000010404601F00F01B14216D9016821F005
:100900000F0131430160FFF767FE074607E000BFB4
:10091000FFF762FEC11B514501D903207AE7D8F8E1
:10092000000000F00F00B042F2D12878400705D552
:10093000A068E96820F4E0600843A0602878000718
:1009400006D5A068296920F4605040EAC100A06083
:1009500000F020F8A1680C4AC1F30311515C01F0CA
:100960001F01C8400949086009480068BDE8F04710
:10097000FFF750BE002002400010024000B4C40443
:100980000024F40040787D01760F00080C00002060
:1009900000000020184910B58868C0F3810217488C
:1009A000012A0BD08A68164BC2F38102022A06D0B4
:1009B0008A68C2F38102032A03D0002010BD1846C2
:1009C00010BDCA6802F00304CA68C2F30312521CC5
:1009D000032C02D0B0FBF2F001E0B3FBF2F0CA68E6
:1009E000C968C2F306225043C1F34161491C490062
:1009F000B0FBF1F010BD0000001002400024F40034
:100A000040787D012DE9F84304007AD02078FA4D32
:100A1000C00747D0A868E96800F00C0001F00301A6
:100A20000C2802D0082817D001E0032914D06068F0
:100A3000B0F5803F17D0B0F5A02F286817D020F46C
:100A400080302860286820F4802028606068E0B149
:100A5000FFF7C2FD064614E02868800322D56068CF
:100A60000028D2D01EE0286840F48030EDE740F442
:100A700080202860F7E700BFFFF7AEFD801B6428E9
:100A800070D828688003F7D50CE0FFF7A5FD06466F
:100A900005E000BFFFF7A0FD801B6428F0D82868A0
:100AA0008003F7D4207880074CD5A868E96800F067
:100AB0000C0001F003010C2802D004280DD001E045
:100AC00002290AD0E068002828682BD040F4807002
:100AD0002860FFF781FD064619E02868400502D529
:100AE000E068002891D06868217C20F0FE4040EA50
:100AF00001606860C1480068FFF78CFD002800D1E4
:100B000020E076E1FFF768FD801B0228B8D828684E
:100B10004005F7D56868217C20F0FE4040EA01607E
:100B200068600FE020F480702860FFF755FD0646EE
:100B300005E000BFFFF750FD801B0228A0D8286801
:100B40004005F7D42078000729D560690028D5F83A
:100B5000940013D040F00100C5F89400FFF73CFD6D
:100B6000064606E090E000BFFFF736FD801B022836
:100B700086D8D5F894008007F6D510E020F0010063
:100B8000C5F89400FFF728FD064604E0FFF724FDB2
:100B9000801B022878D8D5F894008007F6D42078F6
:100BA000400761D5A86D0026C00008D4A86D40F0AC
:100BB0008050A865A86D012600F0805000909048F4
:100BC0000168C90511D40168804641F48071016053
:100BD000FFF702FD074604E0FFF7FEFCC01B0228FA
:100BE00052D8D8F80000C005F6D5A068012815D065
:100BF0000528D5F8900016D020F00100C5F8900027
:100C0000D5F8900020F00400C5F89000A06841F2EB
:100C10008838B8B1FFF7E0FC07460EE0D5F8900041
:100C200040F00100F0E740F00400C5F89000F5E75F
:100C3000FFF7D2FCC11B414526D8D5F890008007AC
:100C4000F6D50CE0FFF7C8FC074604E0FFF7C4FC4C
:100C5000C11B414518D8D5F890008007F6D41EB1C5
:100C6000A86D20F08050A8652078800629D5A0695D
:100C70000028D5F8980013D040F00100C5F898007E
:100C8000FFF7AAFC064606E077E000BFFFF7A4FCEA
:100C9000801B022877D8D5F898008007F6D510E099
:100CA00020F00100C5F89800FFF796FC064604E026
:100CB000FFF792FC801B022865D8D5F898008007C2
:100CC000F6D4E069F0B3A968C1F38101032961D0CA
:100CD0000228286820F0807028600BD0E86820F097
:100CE0000300E860E86847490840E860FFF774FCE3
:100CF00004464BE0FFF770FC064604E0FFF76CFC8F
:100D0000801B02283FD828688001F7D4F4E9080145
:100D10006FF00F0202EB01110843218A52044908C7
:100D200002EB4151A26841EA02210843217D4FF0C4
:100D30007E42490802EB41610843217B40EAC160E1
:100D4000E96800E062E0304A11400843E860286842
:100D500040F080702860E86840F08070E860FFF73D
:100D60003BFC044605E000BFFFF736FC001B0228F1
:100D700009D828688001F7D548E004E0FFF72CFC8B
:100D8000001B022802D90320BDE8F88328688001EF
:100D9000F4D43BE00128F7D0E868226A00F00301B0
:100DA000914226D1616A00F0F002090110399142A6
:100DB0001FD1A26A00F4FE41B1EB022F19D194F8C1
:100DC0002C2000F07841B1EBC26F12D1218E00F4DB
:100DD000C00249084905A1F50011914209D194F8D2
:100DE000341000F0C06049084906A1F10071814249
:100DF0000CD00120C8E700000010024000000020D5
:100E000000700040FFFFEEFE0C809F010020BBE75A
:100E100010B5401EB0F1807F01D3012010BD4FF00E
:100E2000E02460610F21601700F081F80020A061CC
:100E300007202061002010BDFEE7000030B587B01C
:100E400014216846FFF738FA1548C16C41F00401D7
:100E5000C164C16C01F004010591C16C41F0200135
:100E6000C164C16C01F020010591C16C41F0020127
:100E7000C164C06C012200F002000A4DD40205904A
:100E800021462846FFF7A2FB01210320CDE90210ED
:100E9000CDE9004169462846FFF774FA07B030BD36
:100EA0000010024000040048FEE7FEE7704770476C
:100EB000FFF798BB10B594B038216846FFF7FCF9EE
:100EC00014210EA8FFF7F8F90020FFF70FFC01200E
:100ED00000900004032405210190CDE9084102207F
:100EE0004421CDE90A1007900C900D906846FFF759
:100EF00089FD08B172B6FEE70F20CDE90E0400208F
:100F000010901190129004210EA8FFF755FC0028B4
:100F100001D072B6FEE714B010BD000002480168AF
:100F200041F470010160704788ED00E0FEE70907B9
:100F3000090E002804DB00F1E02080F8001470475F
:100F400000F00F0000F1E02080F8141D7047000051
:100F5000FFF750FBFFF7AEFFFFF770FF0248016895
:100F600061F400610160FAE7140400484FF040703A
:100F7000E1EE100A704700000000000000000102CE
:100F80000304060708090000A80F0008000000205D
:100F90001000000014020008B80F00081000002024
:100FA0006006000030020008100000000100000090
:080FB000000000000024F40021
:04000005080001D915
:00000001FF
